:100000000C9434000C9446000C9446000C9446006A
:100010000C9446000C9446000C9446000C94460048
:100020000C9446000C9446000C9446000C94BC00C2
:100030000C9446000C9446000C9446000C94460028
:100040000C9446000C9446000C9446000C94460018
:100050000C9446000C9446000C9446000C94460008
:100060000C9446000C94460011241FBECFEFD8E03C
:10007000DEBFCDBF21E0A0E0B1E001C01D92A730FE
:10008000B207E1F70E94E1000C9457010C940000C4
:10009000811106C08BB1807D8BB988B184730FC08C
:1000A000813031F48BB180788BB988B1847007C00E
:1000B000823039F48BB1807B8BB988B1807388B979
:1000C0000895833031F48BB1807B8BB988B1847112
:1000D000F6CF843019F48BB1807CF7CF853019F4DA
:1000E0008BB18077F2CF863019F48BB18077D4CF83
:1000F000873019F48BB1807AD7CF883019F48BB15F
:10010000807FCACF8930E1F68BB1807FDECF15B812
:1001100018B81BB808951F93CF93DF9384E085B977
:10012000C0E0D1E08A810E9448000E94870012E06E
:100130001BB989810E9448000E94870015B98881F7
:100140000E944800DF91CF911F910C948700E1E855
:10015000F0E08081886080838DE790E09093890053
:1001600080938800EFE6F0E08081826080831092C7
:1001700085001092840008951F920F920FB60F927F
:1001800011248F939F93AF93BF938091030190911C
:100190000401A0910501B09106010196A11DB11DB8
:1001A0008093030190930401A0930501B09306018D
:1001B000BF91AF919F918F910F900FBE0F901F90A5
:1001C00018950E94A700789483E084B915B884EF4D
:1001D0008AB91BB88CE387B918B888EEC82E83E0BB
:1001E000D82EE12CF12CCAE0D4E680910301909145
:1001F0000401A0910501B091060188359E43AF40EE
:10020000B10540F010920301109204011092050113
:100210001092060160910301709104018091050123
:1002200090910601A70196010E943501822F6C2F43
:100230000E942901909300010E94290190930101DD
:10024000822F6D2F0E942901809302010E948B0052
:10025000CCCF991B79E004C0991F961708F0961B24
:10026000881F7A95C9F780950895A1E21A2EAA1BD6
:10027000BB1BFD010DC0AA1FBB1FEE1FFF1FA21756
:10028000B307E407F50720F0A21BB30BE40BF50B53
:10029000661F771F881F991F1A9469F760957095DC
:1002A000809590959B01AC01BD01CF010895F89414
:0202B000FFCF7E
:00000001FF
